{
  "_format": "hh-sol-artifact-1",
  "contractName": "World3",
  "sourceName": "contracts/World3.sol",
  "abi": [
    {
      "inputs": [
        {
          "internalType": "address",
          "name": "_priceFeedAddress",
          "type": "address"
        },
        {
          "internalType": "address",
          "name": "_vrfCoordinator",
          "type": "address"
        },
        {
          "internalType": "address",
          "name": "_linkToken",
          "type": "address"
        },
        {
          "internalType": "bytes32",
          "name": "_keyHash",
          "type": "bytes32"
        },
        {
          "internalType": "uint256",
          "name": "_fee",
          "type": "uint256"
        }
      ],
      "stateMutability": "nonpayable",
      "type": "constructor"
    },
    {
      "inputs": [],
      "name": "MIN_THRESHOLD_PERCENTAGE",
      "outputs": [
        {
          "internalType": "uint256",
          "name": "",
          "type": "uint256"
        }
      ],
      "stateMutability": "view",
      "type": "function"
    },
    {
      "inputs": [],
      "name": "THRESHOLD",
      "outputs": [
        {
          "internalType": "uint256",
          "name": "",
          "type": "uint256"
        }
      ],
      "stateMutability": "view",
      "type": "function"
    },
    {
      "inputs": [
        {
          "internalType": "uint256",
          "name": "_donationId",
          "type": "uint256"
        },
        {
          "internalType": "uint256",
          "name": "_amount",
          "type": "uint256"
        }
      ],
      "name": "addDonation",
      "outputs": [],
      "stateMutability": "nonpayable",
      "type": "function"
    },
    {
      "inputs": [
        {
          "internalType": "bytes",
          "name": "_data",
          "type": "bytes"
        }
      ],
      "name": "checkUpkeep",
      "outputs": [
        {
          "internalType": "bool",
          "name": "upkeepNeeded",
          "type": "bool"
        },
        {
          "internalType": "bytes",
          "name": "performData",
          "type": "bytes"
        }
      ],
      "stateMutability": "view",
      "type": "function"
    },
    {
      "inputs": [
        {
          "internalType": "string",
          "name": "_name",
          "type": "string"
        },
        {
          "internalType": "string",
          "name": "_category",
          "type": "string"
        },
        {
          "internalType": "uint256",
          "name": "_goal",
          "type": "uint256"
        },
        {
          "internalType": "string[]",
          "name": "_pictures",
          "type": "string[]"
        },
        {
          "internalType": "uint256",
          "name": "_startTime",
          "type": "uint256"
        },
        {
          "internalType": "uint256",
          "name": "_endTime",
          "type": "uint256"
        }
      ],
      "name": "createDonation",
      "outputs": [],
      "stateMutability": "nonpayable",
      "type": "function"
    },
    {
      "inputs": [],
      "name": "donationAccumulated",
      "outputs": [
        {
          "internalType": "uint256",
          "name": "",
          "type": "uint256"
        }
      ],
      "stateMutability": "view",
      "type": "function"
    },
    {
      "inputs": [],
      "name": "donationCount",
      "outputs": [
        {
          "internalType": "uint256",
          "name": "",
          "type": "uint256"
        }
      ],
      "stateMutability": "view",
      "type": "function"
    },
    {
      "inputs": [
        {
          "internalType": "uint256",
          "name": "",
          "type": "uint256"
        }
      ],
      "name": "donations",
      "outputs": [
        {
          "internalType": "string",
          "name": "name",
          "type": "string"
        },
        {
          "internalType": "string",
          "name": "description",
          "type": "string"
        },
        {
          "internalType": "uint256",
          "name": "goal",
          "type": "uint256"
        },
        {
          "internalType": "uint256",
          "name": "amountRaised",
          "type": "uint256"
        },
        {
          "internalType": "uint256",
          "name": "toGo",
          "type": "uint256"
        },
        {
          "internalType": "string",
          "name": "category",
          "type": "string"
        },
        {
          "internalType": "uint256",
          "name": "startTime",
          "type": "uint256"
        },
        {
          "internalType": "uint256",
          "name": "endTime",
          "type": "uint256"
        }
      ],
      "stateMutability": "view",
      "type": "function"
    },
    {
      "inputs": [
        {
          "internalType": "uint256",
          "name": "_donationId",
          "type": "uint256"
        },
        {
          "internalType": "string",
          "name": "_name",
          "type": "string"
        },
        {
          "internalType": "uint256",
          "name": "_goal",
          "type": "uint256"
        },
        {
          "internalType": "string[]",
          "name": "_pictures",
          "type": "string[]"
        },
        {
          "internalType": "string",
          "name": "_category",
          "type": "string"
        },
        {
          "internalType": "uint256",
          "name": "_startTime",
          "type": "uint256"
        },
        {
          "internalType": "uint256",
          "name": "_endTime",
          "type": "uint256"
        }
      ],
      "name": "editDonation",
      "outputs": [],
      "stateMutability": "nonpayable",
      "type": "function"
    },
    {
      "inputs": [],
      "name": "endTime",
      "outputs": [
        {
          "internalType": "uint256",
          "name": "",
          "type": "uint256"
        }
      ],
      "stateMutability": "view",
      "type": "function"
    },
    {
      "inputs": [
        {
          "internalType": "uint256",
          "name": "_donationId",
          "type": "uint256"
        }
      ],
      "name": "getDonation",
      "outputs": [
        {
          "components": [
            {
              "internalType": "string",
              "name": "name",
              "type": "string"
            },
            {
              "internalType": "string",
              "name": "description",
              "type": "string"
            },
            {
              "internalType": "uint256",
              "name": "goal",
              "type": "uint256"
            },
            {
              "internalType": "uint256",
              "name": "amountRaised",
              "type": "uint256"
            },
            {
              "internalType": "uint256",
              "name": "toGo",
              "type": "uint256"
            },
            {
              "internalType": "string[]",
              "name": "pictures",
              "type": "string[]"
            },
            {
              "internalType": "string",
              "name": "category",
              "type": "string"
            },
            {
              "internalType": "uint256[]",
              "name": "donorAmounts",
              "type": "uint256[]"
            },
            {
              "internalType": "address[]",
              "name": "donors",
              "type": "address[]"
            },
            {
              "internalType": "uint256",
              "name": "startTime",
              "type": "uint256"
            },
            {
              "internalType": "uint256",
              "name": "endTime",
              "type": "uint256"
            }
          ],
          "internalType": "struct World3.Donation",
          "name": "",
          "type": "tuple"
        }
      ],
      "stateMutability": "view",
      "type": "function"
    },
    {
      "inputs": [
        {
          "internalType": "uint256",
          "name": "_donationId",
          "type": "uint256"
        }
      ],
      "name": "getDonationValueInUSD",
      "outputs": [
        {
          "internalType": "uint256",
          "name": "",
          "type": "uint256"
        }
      ],
      "stateMutability": "view",
      "type": "function"
    },
    {
      "inputs": [],
      "name": "getDonations",
      "outputs": [
        {
          "components": [
            {
              "internalType": "string",
              "name": "name",
              "type": "string"
            },
            {
              "internalType": "string",
              "name": "description",
              "type": "string"
            },
            {
              "internalType": "uint256",
              "name": "goal",
              "type": "uint256"
            },
            {
              "internalType": "uint256",
              "name": "amountRaised",
              "type": "uint256"
            },
            {
              "internalType": "uint256",
              "name": "toGo",
              "type": "uint256"
            },
            {
              "internalType": "string[]",
              "name": "pictures",
              "type": "string[]"
            },
            {
              "internalType": "string",
              "name": "category",
              "type": "string"
            },
            {
              "internalType": "uint256[]",
              "name": "donorAmounts",
              "type": "uint256[]"
            },
            {
              "internalType": "address[]",
              "name": "donors",
              "type": "address[]"
            },
            {
              "internalType": "uint256",
              "name": "startTime",
              "type": "uint256"
            },
            {
              "internalType": "uint256",
              "name": "endTime",
              "type": "uint256"
            }
          ],
          "internalType": "struct World3.Donation[]",
          "name": "",
          "type": "tuple[]"
        }
      ],
      "stateMutability": "view",
      "type": "function"
    },
    {
      "inputs": [
        {
          "internalType": "uint256",
          "name": "_donationId",
          "type": "uint256"
        }
      ],
      "name": "getRandomNumber",
      "outputs": [
        {
          "internalType": "bytes32",
          "name": "requestId",
          "type": "bytes32"
        }
      ],
      "stateMutability": "nonpayable",
      "type": "function"
    },
    {
      "inputs": [
        {
          "internalType": "address",
          "name": "_user",
          "type": "address"
        }
      ],
      "name": "getUserDonations",
      "outputs": [
        {
          "components": [
            {
              "internalType": "string",
              "name": "name",
              "type": "string"
            },
            {
              "internalType": "string",
              "name": "description",
              "type": "string"
            },
            {
              "internalType": "uint256",
              "name": "goal",
              "type": "uint256"
            },
            {
              "internalType": "uint256",
              "name": "amountRaised",
              "type": "uint256"
            },
            {
              "internalType": "uint256",
              "name": "toGo",
              "type": "uint256"
            },
            {
              "internalType": "string[]",
              "name": "pictures",
              "type": "string[]"
            },
            {
              "internalType": "string",
              "name": "category",
              "type": "string"
            },
            {
              "internalType": "uint256[]",
              "name": "donorAmounts",
              "type": "uint256[]"
            },
            {
              "internalType": "address[]",
              "name": "donors",
              "type": "address[]"
            },
            {
              "internalType": "uint256",
              "name": "startTime",
              "type": "uint256"
            },
            {
              "internalType": "uint256",
              "name": "endTime",
              "type": "uint256"
            }
          ],
          "internalType": "struct World3.Donation[]",
          "name": "",
          "type": "tuple[]"
        }
      ],
      "stateMutability": "view",
      "type": "function"
    },
    {
      "inputs": [
        {
          "internalType": "uint256",
          "name": "_donationId",
          "type": "uint256"
        }
      ],
      "name": "hideDonation",
      "outputs": [],
      "stateMutability": "nonpayable",
      "type": "function"
    },
    {
      "inputs": [],
      "name": "owner",
      "outputs": [
        {
          "internalType": "address",
          "name": "",
          "type": "address"
        }
      ],
      "stateMutability": "view",
      "type": "function"
    },
    {
      "inputs": [
        {
          "internalType": "bytes",
          "name": "_performData",
          "type": "bytes"
        }
      ],
      "name": "performUpkeep",
      "outputs": [],
      "stateMutability": "nonpayable",
      "type": "function"
    },
    {
      "inputs": [],
      "name": "randomResult",
      "outputs": [
        {
          "internalType": "uint256",
          "name": "",
          "type": "uint256"
        }
      ],
      "stateMutability": "view",
      "type": "function"
    },
    {
      "inputs": [
        {
          "internalType": "bytes32",
          "name": "requestId",
          "type": "bytes32"
        },
        {
          "internalType": "uint256",
          "name": "randomness",
          "type": "uint256"
        }
      ],
      "name": "rawFulfillRandomness",
      "outputs": [],
      "stateMutability": "nonpayable",
      "type": "function"
    },
    {
      "inputs": [
        {
          "internalType": "uint256",
          "name": "_donationId",
          "type": "uint256"
        },
        {
          "internalType": "uint256",
          "name": "_endTime",
          "type": "uint256"
        }
      ],
      "name": "scheduleEndDonation",
      "outputs": [],
      "stateMutability": "nonpayable",
      "type": "function"
    }
  ],
  "bytecode": "0x60c06040523480156200001157600080fd5b50604051620025cf380380620025cf83398101604081905262000034916200008d565b6001600160a01b0393841660a052918316608052600480546001600160a01b0319169490931693909317909155600591909155600655620000ea565b80516001600160a01b03811681146200008857600080fd5b919050565b600080600080600060a08688031215620000a657600080fd5b620000b18662000070565b9450620000c16020870162000070565b9350620000d16040870162000070565b6060870151608090970151959894975095949392505050565b60805160a0516124b16200011e60003960008181610a7601526118d3015260008181610af001526118a401526124b16000f3fe608060405234801561001057600080fd5b50600436106101075760003560e01c80631c8ef3051461010c5780631cc4654d146101215780632abfab4d146101345780632cb8f793146101505780633197cbb614610163578063336ca9041461016c57806342619f661461017f5780634585e33b1461018857806345f5d7ac1461019b5780636e04ff0d146101a4578063732435b2146101ca578063785ffb37146101ea5780638da5cb5b146101f257806394985ddd14610200578063b37217a414610213578063d87ffb7014610226578063deb0d88314610239578063e25f84161461024c578063e39fea2d14610254578063ef07a81f1461025c578063f8626af81461027c575b600080fd5b61011f61011a366004611d5f565b6102a3565b005b61011f61012f366004611e02565b610364565b61013d60035481565b6040519081526020015b60405180910390f35b61013d61015e366004611e24565b6103fe565b61013d60095481565b61011f61017a366004611e3d565b6104b6565b61013d60075481565b61011f610196366004611eeb565b610564565b61013d60085481565b6101bc6101b2366004611eeb565b6008546064111591565b604051610147929190611f80565b6101dd6101d8366004611f9b565b6105b7565b6040516101479190612164565b61013d606481565b3360405161014791906121c6565b61011f61020e366004611e02565b610a6b565b61013d610221366004611e24565b610ae9565b61011f610234366004611e02565b610c15565b61011f610247366004611e24565b610dcb565b6101dd610e7a565b61013d603281565b61026f61026a366004611e24565b611304565b60405161014791906121da565b61028f61028a366004611e24565b6116c8565b6040516101479897969594939291906121ed565b6102b1565b60405180910390fd5b8082106102d05760405162461bcd60e51b81526004016102a890612253565b6003546000908152600260209081526040909120875190916102f69183918a0190611a26565b5060028101859055600060038201556004810185905583516103219060058301906020870190611aaa565b5085516103379060068301906020890190611a26565b5060098101839055600a8101829055600380549060006103568361229d565b919050555050505050505050565b8160035481106103865760405162461bcd60e51b81526004016102a8906122b8565b6000838152600260205260409020600981015483116103f35760405162461bcd60e51b815260206004820152602360248201527f456e642074696d652073686f756c642062652061667465722073746172742074604482015262696d6560e81b60648201526084016102a8565b600a01919091555050565b600081815260026020526040808220600480548351633fabe5a360e21b81529351929385936001600160a01b039092169263feaf968c928282019260a09290829003018186803b15801561045157600080fd5b505afa158015610465573d6000803e3d6000fd5b505050506040513d601f19601f820116820180604052508101906104899190612305565b5050509150506305f5e1008183600301546104a49190612355565b6104ae9190612374565b949350505050565b8660035481106104d85760405162461bcd60e51b81526004016102a8906122b8565b8183106104f75760405162461bcd60e51b81526004016102a890612253565b60008881526002602090815260409091208851909161051a9183918b0190611a26565b506002810187905585516105379060058301906020890190611aaa565b50845161054d9060068301906020880190611a26565b50600981019390935550600a909101555050505050565b606460085410156105af5760405162461bcd60e51b8152602060048201526015602482015274151a1c995cda1bdb19081b9bdd081c995858da1959605a1b60448201526064016102a8565b506000600855565b6001600160a01b038116600090815260016020908152604080832080548251818502810185019093528083526060949383018282801561061657602002820191906000526020600020905b815481526020019060010190808311610602575b50505050509050600081516001600160401b0381111561063857610638611c04565b60405190808252806020026020018201604052801561067157816020015b61065e611b03565b8152602001906001900390816106565790505b50905060005b8251811015610a63576002600084838151811061069657610696612396565b60200260200101518152602001908152602001600020604051806101600160405290816000820180546106c8906123ac565b80601f01602080910402602001604051908101604052809291908181526020018280546106f4906123ac565b80156107415780601f1061071657610100808354040283529160200191610741565b820191906000526020600020905b81548152906001019060200180831161072457829003601f168201915b5050505050815260200160018201805461075a906123ac565b80601f0160208091040260200160405190810160405280929190818152602001828054610786906123ac565b80156107d35780601f106107a8576101008083540402835291602001916107d3565b820191906000526020600020905b8154815290600101906020018083116107b657829003601f168201915b5050505050815260200160028201548152602001600382015481526020016004820154815260200160058201805480602002602001604051908101604052809291908181526020016000905b828210156108cb57838290600052602060002001805461083e906123ac565b80601f016020809104026020016040519081016040528092919081815260200182805461086a906123ac565b80156108b75780601f1061088c576101008083540402835291602001916108b7565b820191906000526020600020905b81548152906001019060200180831161089a57829003601f168201915b50505050508152602001906001019061081f565b5050505081526020016006820180546108e3906123ac565b80601f016020809104026020016040519081016040528092919081815260200182805461090f906123ac565b801561095c5780601f106109315761010080835404028352916020019161095c565b820191906000526020600020905b81548152906001019060200180831161093f57829003601f168201915b50505050508152602001600782018054806020026020016040519081016040528092919081815260200182805480156109b457602002820191906000526020600020905b8154815260200190600101908083116109a0575b5050505050815260200160088201805480602002602001604051908101604052809291908181526020018280548015610a1657602002820191906000526020600020905b81546001600160a01b031681526001909101906020018083116109f8575b5050505050815260200160098201548152602001600a82015481525050828281518110610a4557610a45612396565b60200260200101819052508080610a5b9061229d565b915050610677565b509392505050565b336001600160a01b037f00000000000000000000000000000000000000000000000000000000000000001614610ae35760405162461bcd60e51b815260206004820152601f60248201527f4f6e6c7920565246436f6f7264696e61746f722063616e2066756c66696c6c0060448201526064016102a8565b60075550565b60006006547f00000000000000000000000000000000000000000000000000000000000000006001600160a01b03166370a08231306040518263ffffffff1660e01b8152600401610b3a91906121c6565b60206040518083038186803b158015610b5257600080fd5b505afa158015610b66573d6000803e3d6000fd5b505050506040513d601f19601f82011682018060405250810190610b8a91906123e1565b1015610bf05760405162461bcd60e51b815260206004820152602f60248201527f4e6f7420656e6f756768204c494e4b20746f6b656e7320746f2072657175657360448201526e3a103930b73237b690373ab6b132b960891b60648201526084016102a8565b6000828152600260205260409020600554600654610c0e91906118a0565b9392505050565b816003548110610c375760405162461bcd60e51b81526004016102a8906122b8565b60008381526002602052604090206009810154421015610ca35760405162461bcd60e51b815260206004820152602160248201527f446f6e6174696f6e2063616d706169676e20686173206e6f74207374617274656044820152601960fa1b60648201526084016102a8565b80600a0154421115610cf55760405162461bcd60e51b815260206004820152601b60248201527a111bdb985d1a5bdb8818d85b5c185a59db881a185cc8195b991959602a1b60448201526064016102a8565b82816003016000828254610d0991906123fa565b909155505060038101546002820154610d229190612412565b6004820155600781018054600181810183556000928352602080842090920186905560088401805480830182559084528284200180546001600160a01b031916339081179091558352808252604083208054918201815583529120018490556002810154606490610d9590603290612355565b610d9f9190612374565b816003015410610dc557806003015460086000828254610dbf91906123fa565b90915550505b50505050565b806003548110610ded5760405162461bcd60e51b81526004016102a8906122b8565b600082815260026020526040812090610e068282611b5d565b610e14600183016000611b5d565b600282016000905560038201600090556004820160009055600582016000610e3c9190611b9a565b610e4a600683016000611b5d565b610e58600783016000611bb8565b610e66600883016000611bb8565b50600060098201819055600a909101555050565b606060006003546001600160401b03811115610e9857610e98611c04565b604051908082528060200260200182016040528015610ed157816020015b610ebe611b03565b815260200190600190039081610eb65790505b50905060005b6003548110156112fe57600081815260026020526040812060088101549091906001600160401b03811115610f0e57610f0e611c04565b604051908082528060200260200182016040528015610f37578160200160208202803683370190505b50905060005b6008830154811015610f9857826007018181548110610f5e57610f5e612396565b9060005260206000200154828281518110610f7b57610f7b612396565b602090810291909101015280610f908161229d565b915050610f3d565b50604051806101600160405280836000018054610fb4906123ac565b80601f0160208091040260200160405190810160405280929190818152602001828054610fe0906123ac565b801561102d5780601f106110025761010080835404028352916020019161102d565b820191906000526020600020905b81548152906001019060200180831161101057829003601f168201915b50505050508152602001836001018054611046906123ac565b80601f0160208091040260200160405190810160405280929190818152602001828054611072906123ac565b80156110bf5780601f10611094576101008083540402835291602001916110bf565b820191906000526020600020905b8154815290600101906020018083116110a257829003601f168201915b5050505050815260200183600201548152602001836003015481526020018360040154815260200183600501805480602002602001604051908101604052809291908181526020016000905b828210156111b757838290600052602060002001805461112a906123ac565b80601f0160208091040260200160405190810160405280929190818152602001828054611156906123ac565b80156111a35780601f10611178576101008083540402835291602001916111a3565b820191906000526020600020905b81548152906001019060200180831161118657829003601f168201915b50505050508152602001906001019061110b565b5050505081526020018360060180546111cf906123ac565b80601f01602080910402602001604051908101604052809291908181526020018280546111fb906123ac565b80156112485780601f1061121d57610100808354040283529160200191611248565b820191906000526020600020905b81548152906001019060200180831161122b57829003601f168201915b50505050508152602001828152602001836008018054806020026020016040519081016040528092919081815260200182805480156112b057602002820191906000526020600020905b81546001600160a01b03168152600190910190602001808311611292575b505050505081526020018360090154815260200183600a01548152508484815181106112de576112de612396565b6020026020010181905250505080806112f69061229d565b915050610ed7565b50919050565b61130c611b03565b600354821061132d5760405162461bcd60e51b81526004016102a8906122b8565b6000828152600260205260409081902081516101608101909252805482908290611356906123ac565b80601f0160208091040260200160405190810160405280929190818152602001828054611382906123ac565b80156113cf5780601f106113a4576101008083540402835291602001916113cf565b820191906000526020600020905b8154815290600101906020018083116113b257829003601f168201915b505050505081526020016001820180546113e8906123ac565b80601f0160208091040260200160405190810160405280929190818152602001828054611414906123ac565b80156114615780601f1061143657610100808354040283529160200191611461565b820191906000526020600020905b81548152906001019060200180831161144457829003601f168201915b5050505050815260200160028201548152602001600382015481526020016004820154815260200160058201805480602002602001604051908101604052809291908181526020016000905b828210156115595783829060005260206000200180546114cc906123ac565b80601f01602080910402602001604051908101604052809291908181526020018280546114f8906123ac565b80156115455780601f1061151a57610100808354040283529160200191611545565b820191906000526020600020905b81548152906001019060200180831161152857829003601f168201915b5050505050815260200190600101906114ad565b505050508152602001600682018054611571906123ac565b80601f016020809104026020016040519081016040528092919081815260200182805461159d906123ac565b80156115ea5780601f106115bf576101008083540402835291602001916115ea565b820191906000526020600020905b8154815290600101906020018083116115cd57829003601f168201915b505050505081526020016007820180548060200260200160405190810160405280929190818152602001828054801561164257602002820191906000526020600020905b81548152602001906001019080831161162e575b50505050508152602001600882018054806020026020016040519081016040528092919081815260200182805480156116a457602002820191906000526020600020905b81546001600160a01b03168152600190910190602001808311611686575b5050505050815260200160098201548152602001600a820154815250509050919050565b6002602052600090815260409020805481906116e3906123ac565b80601f016020809104026020016040519081016040528092919081815260200182805461170f906123ac565b801561175c5780601f106117315761010080835404028352916020019161175c565b820191906000526020600020905b81548152906001019060200180831161173f57829003601f168201915b505050505090806001018054611771906123ac565b80601f016020809104026020016040519081016040528092919081815260200182805461179d906123ac565b80156117ea5780601f106117bf576101008083540402835291602001916117ea565b820191906000526020600020905b8154815290600101906020018083116117cd57829003601f168201915b505050505090806002015490806003015490806004015490806006018054611811906123ac565b80601f016020809104026020016040519081016040528092919081815260200182805461183d906123ac565b801561188a5780601f1061185f5761010080835404028352916020019161188a565b820191906000526020600020905b81548152906001019060200180831161186d57829003601f168201915b50505050509080600901549080600a0154905088565b60007f00000000000000000000000000000000000000000000000000000000000000006001600160a01b0316634000aea07f000000000000000000000000000000000000000000000000000000000000000084866000604051602001611910929190918252602082015260400190565b6040516020818303038152906040526040518463ffffffff1660e01b815260040161193d93929190612429565b602060405180830381600087803b15801561195757600080fd5b505af115801561196b573d6000803e3d6000fd5b505050506040513d601f19601f8201168201806040525081019061198f9190612459565b5060008381526020818152604080832054815180840188905280830185905230606082015260808082018390528351808303909101815260a0909101909252815191830191909120868452929091526119e99060016123fa565b60008581526020818152604091829020929092558051808301879052808201849052815180820383018152606090910190915280519101206104ae565b828054611a32906123ac565b90600052602060002090601f016020900481019282611a545760008555611a9a565b82601f10611a6d57805160ff1916838001178555611a9a565b82800160010185558215611a9a579182015b82811115611a9a578251825591602001919060010190611a7f565b50611aa6929150611bd2565b5090565b828054828255906000526020600020908101928215611af7579160200282015b82811115611af75782518051611ae7918491602090910190611a26565b5091602001919060010190611aca565b50611aa6929150611be7565b60405180610160016040528060608152602001606081526020016000815260200160008152602001600081526020016060815260200160608152602001606081526020016060815260200160008152602001600081525090565b508054611b69906123ac565b6000825580601f10611b79575050565b601f016020900490600052602060002090810190611b979190611bd2565b50565b5080546000825590600052602060002090810190611b979190611be7565b5080546000825590600052602060002090810190611b9791905b5b80821115611aa65760008155600101611bd3565b80821115611aa6576000611bfb8282611b5d565b50600101611be7565b634e487b7160e01b600052604160045260246000fd5b604051601f8201601f191681016001600160401b0381118282101715611c4257611c42611c04565b604052919050565b60006001600160401b03831115611c6357611c63611c04565b611c76601f8401601f1916602001611c1a565b9050828152838383011115611c8a57600080fd5b828260208301376000602084830101529392505050565b600082601f830112611cb257600080fd5b610c0e83833560208501611c4a565b600082601f830112611cd257600080fd5b813560206001600160401b0380831115611cee57611cee611c04565b8260051b611cfd838201611c1a565b9384528581018301938381019088861115611d1757600080fd5b84880192505b85831015611d5357823584811115611d355760008081fd5b611d438a87838c0101611ca1565b8352509184019190840190611d1d565b98975050505050505050565b60008060008060008060c08789031215611d7857600080fd5b86356001600160401b0380821115611d8f57600080fd5b611d9b8a838b01611ca1565b97506020890135915080821115611db157600080fd5b611dbd8a838b01611ca1565b9650604089013595506060890135915080821115611dda57600080fd5b50611de789828a01611cc1565b9350506080870135915060a087013590509295509295509295565b60008060408385031215611e1557600080fd5b50508035926020909101359150565b600060208284031215611e3657600080fd5b5035919050565b600080600080600080600060e0888a031215611e5857600080fd5b8735965060208801356001600160401b0380821115611e7657600080fd5b611e828b838c01611ca1565b975060408a0135965060608a0135915080821115611e9f57600080fd5b611eab8b838c01611cc1565b955060808a0135915080821115611ec157600080fd5b50611ece8a828b01611ca1565b93505060a0880135915060c0880135905092959891949750929550565b600060208284031215611efd57600080fd5b81356001600160401b03811115611f1357600080fd5b8201601f81018413611f2457600080fd5b6104ae84823560208401611c4a565b6000815180845260005b81811015611f5957602081850181015186830182015201611f3d565b81811115611f6b576000602083870101525b50601f01601f19169290920160200192915050565b82151581526040602082015260006104ae6040830184611f33565b600060208284031215611fad57600080fd5b81356001600160a01b0381168114610c0e57600080fd5b6000815180845260208085019450848260051b860182860160005b85811015612009578383038952611ff7838351611f33565b98850198925090840190600101611fdf565b5090979650505050505050565b600081518084526020808501945080840160005b838110156120465781518752958201959082019060010161202a565b509495945050505050565b600081518084526020808501945080840160005b838110156120465781516001600160a01b031687529582019590820190600101612065565b600061016082518185526120a082860182611f33565b915050602083015184820360208601526120ba8282611f33565b91505060408301516040850152606083015160608501526080830151608085015260a083015184820360a08601526120f28282611fc4565b91505060c083015184820360c086015261210c8282611f33565b91505060e083015184820360e08601526121268282612016565b91505061010080840151858303828701526121418382612051565b610120868101519088015261014095860151959096019490945250929392505050565b6000602080830181845280855180835260408601915060408160051b870101925083870160005b828110156121b957603f198886030184526121a785835161208a565b9450928501929085019060010161218b565b5092979650505050505050565b6001600160a01b0391909116815260200190565b602081526000610c0e602083018461208a565b60006101008083526122018184018c611f33565b90508281036020840152612215818b611f33565b905088604084015287606084015286608084015282810360a084015261223b8187611f33565b60c0840195909552505060e001529695505050505050565b6020808252601a9082015279496e76616c696420737461727420616e6420656e642074696d6560301b604082015260600190565b634e487b7160e01b600052601160045260246000fd5b60006000198214156122b1576122b1612287565b5060010190565b602080825260179082015276111bdb985d1a5bdb88191bd95cc81b9bdd08195e1a5cdd604a1b604082015260600190565b80516001600160501b038116811461230057600080fd5b919050565b600080600080600060a0868803121561231d57600080fd5b612326866122e9565b9450602086015193506040860151925060608601519150612349608087016122e9565b90509295509295909350565b600081600019048311821515161561236f5761236f612287565b500290565b60008261239157634e487b7160e01b600052601260045260246000fd5b500490565b634e487b7160e01b600052603260045260246000fd5b600181811c908216806123c057607f821691505b602082108114156112fe57634e487b7160e01b600052602260045260246000fd5b6000602082840312156123f357600080fd5b5051919050565b6000821982111561240d5761240d612287565b500190565b60008282101561242457612424612287565b500390565b60018060a01b03841681528260208201526060604082015260006124506060830184611f33565b95945050505050565b60006020828403121561246b57600080fd5b81518015158114610c0e57600080fdfea2646970667358221220da22b9d79822019940029ee41a67a0ceab5570e3487b5b263b4e2fe65a8049ac64736f6c63430008090033",
  "linkReferences": {},
  "deployedLinkReferences": {}
}