{
  "_format": "hh-sol-artifact-1",
  "contractName": "World3",
  "sourceName": "contracts/World3.sol",
  "abi": [
    {
      "inputs": [
        {
          "internalType": "address",
          "name": "_priceFeedAddress",
          "type": "address"
        },
        {
          "internalType": "address",
          "name": "_vrfCoordinator",
          "type": "address"
        },
        {
          "internalType": "address",
          "name": "_linkToken",
          "type": "address"
        },
        {
          "internalType": "bytes32",
          "name": "_keyHash",
          "type": "bytes32"
        },
        {
          "internalType": "uint256",
          "name": "_fee",
          "type": "uint256"
        }
      ],
      "stateMutability": "nonpayable",
      "type": "constructor"
    },
    {
      "inputs": [],
      "name": "MIN_THRESHOLD_PERCENTAGE",
      "outputs": [
        {
          "internalType": "uint256",
          "name": "",
          "type": "uint256"
        }
      ],
      "stateMutability": "view",
      "type": "function"
    },
    {
      "inputs": [],
      "name": "THRESHOLD",
      "outputs": [
        {
          "internalType": "uint256",
          "name": "",
          "type": "uint256"
        }
      ],
      "stateMutability": "view",
      "type": "function"
    },
    {
      "inputs": [
        {
          "internalType": "uint256",
          "name": "_donationId",
          "type": "uint256"
        },
        {
          "internalType": "uint256",
          "name": "_amount",
          "type": "uint256"
        }
      ],
      "name": "addDonation",
      "outputs": [],
      "stateMutability": "nonpayable",
      "type": "function"
    },
    {
      "inputs": [
        {
          "internalType": "bytes",
          "name": "_data",
          "type": "bytes"
        }
      ],
      "name": "checkUpkeep",
      "outputs": [
        {
          "internalType": "bool",
          "name": "upkeepNeeded",
          "type": "bool"
        },
        {
          "internalType": "bytes",
          "name": "performData",
          "type": "bytes"
        }
      ],
      "stateMutability": "view",
      "type": "function"
    },
    {
      "inputs": [
        {
          "internalType": "string",
          "name": "_name",
          "type": "string"
        },
        {
          "internalType": "string",
          "name": "_category",
          "type": "string"
        },
        {
          "internalType": "uint256",
          "name": "_goal",
          "type": "uint256"
        },
        {
          "internalType": "string[]",
          "name": "_pictures",
          "type": "string[]"
        },
        {
          "internalType": "uint256",
          "name": "_startTime",
          "type": "uint256"
        },
        {
          "internalType": "uint256",
          "name": "_endTime",
          "type": "uint256"
        }
      ],
      "name": "createDonation",
      "outputs": [],
      "stateMutability": "nonpayable",
      "type": "function"
    },
    {
      "inputs": [],
      "name": "donationAccumulated",
      "outputs": [
        {
          "internalType": "uint256",
          "name": "",
          "type": "uint256"
        }
      ],
      "stateMutability": "view",
      "type": "function"
    },
    {
      "inputs": [],
      "name": "donationCount",
      "outputs": [
        {
          "internalType": "uint256",
          "name": "",
          "type": "uint256"
        }
      ],
      "stateMutability": "view",
      "type": "function"
    },
    {
      "inputs": [
        {
          "internalType": "uint256",
          "name": "",
          "type": "uint256"
        }
      ],
      "name": "donations",
      "outputs": [
        {
          "internalType": "string",
          "name": "name",
          "type": "string"
        },
        {
          "internalType": "string",
          "name": "description",
          "type": "string"
        },
        {
          "internalType": "uint256",
          "name": "goal",
          "type": "uint256"
        },
        {
          "internalType": "uint256",
          "name": "amountRaised",
          "type": "uint256"
        },
        {
          "internalType": "uint256",
          "name": "toGo",
          "type": "uint256"
        },
        {
          "internalType": "string",
          "name": "category",
          "type": "string"
        },
        {
          "internalType": "uint256",
          "name": "startTime",
          "type": "uint256"
        },
        {
          "internalType": "uint256",
          "name": "endTime",
          "type": "uint256"
        }
      ],
      "stateMutability": "view",
      "type": "function"
    },
    {
      "inputs": [
        {
          "internalType": "uint256",
          "name": "_donationId",
          "type": "uint256"
        },
        {
          "internalType": "string",
          "name": "_name",
          "type": "string"
        },
        {
          "internalType": "uint256",
          "name": "_goal",
          "type": "uint256"
        },
        {
          "internalType": "string[]",
          "name": "_pictures",
          "type": "string[]"
        },
        {
          "internalType": "string",
          "name": "_category",
          "type": "string"
        },
        {
          "internalType": "uint256",
          "name": "_startTime",
          "type": "uint256"
        },
        {
          "internalType": "uint256",
          "name": "_endTime",
          "type": "uint256"
        }
      ],
      "name": "editDonation",
      "outputs": [],
      "stateMutability": "nonpayable",
      "type": "function"
    },
    {
      "inputs": [],
      "name": "endTime",
      "outputs": [
        {
          "internalType": "uint256",
          "name": "",
          "type": "uint256"
        }
      ],
      "stateMutability": "view",
      "type": "function"
    },
    {
      "inputs": [
        {
          "internalType": "uint256",
          "name": "_donationId",
          "type": "uint256"
        }
      ],
      "name": "getDonation",
      "outputs": [
        {
          "components": [
            {
              "internalType": "string",
              "name": "name",
              "type": "string"
            },
            {
              "internalType": "string",
              "name": "description",
              "type": "string"
            },
            {
              "internalType": "uint256",
              "name": "goal",
              "type": "uint256"
            },
            {
              "internalType": "uint256",
              "name": "amountRaised",
              "type": "uint256"
            },
            {
              "internalType": "uint256",
              "name": "toGo",
              "type": "uint256"
            },
            {
              "internalType": "string[]",
              "name": "pictures",
              "type": "string[]"
            },
            {
              "internalType": "string",
              "name": "category",
              "type": "string"
            },
            {
              "internalType": "uint256[]",
              "name": "donorAmounts",
              "type": "uint256[]"
            },
            {
              "internalType": "address[]",
              "name": "donors",
              "type": "address[]"
            },
            {
              "internalType": "uint256",
              "name": "startTime",
              "type": "uint256"
            },
            {
              "internalType": "uint256",
              "name": "endTime",
              "type": "uint256"
            }
          ],
          "internalType": "struct World3.Donation",
          "name": "",
          "type": "tuple"
        }
      ],
      "stateMutability": "view",
      "type": "function"
    },
    {
      "inputs": [
        {
          "internalType": "uint256",
          "name": "_donationId",
          "type": "uint256"
        }
      ],
      "name": "getDonationValueInUSD",
      "outputs": [
        {
          "internalType": "uint256",
          "name": "",
          "type": "uint256"
        }
      ],
      "stateMutability": "view",
      "type": "function"
    },
    {
      "inputs": [],
      "name": "getDonations",
      "outputs": [
        {
          "components": [
            {
              "internalType": "string",
              "name": "name",
              "type": "string"
            },
            {
              "internalType": "string",
              "name": "description",
              "type": "string"
            },
            {
              "internalType": "uint256",
              "name": "goal",
              "type": "uint256"
            },
            {
              "internalType": "uint256",
              "name": "amountRaised",
              "type": "uint256"
            },
            {
              "internalType": "uint256",
              "name": "toGo",
              "type": "uint256"
            },
            {
              "internalType": "string[]",
              "name": "pictures",
              "type": "string[]"
            },
            {
              "internalType": "string",
              "name": "category",
              "type": "string"
            },
            {
              "internalType": "uint256[]",
              "name": "donorAmounts",
              "type": "uint256[]"
            },
            {
              "internalType": "address[]",
              "name": "donors",
              "type": "address[]"
            },
            {
              "internalType": "uint256",
              "name": "startTime",
              "type": "uint256"
            },
            {
              "internalType": "uint256",
              "name": "endTime",
              "type": "uint256"
            }
          ],
          "internalType": "struct World3.Donation[]",
          "name": "",
          "type": "tuple[]"
        }
      ],
      "stateMutability": "view",
      "type": "function"
    },
    {
      "inputs": [
        {
          "internalType": "uint256",
          "name": "_donationId",
          "type": "uint256"
        }
      ],
      "name": "getRandomNumber",
      "outputs": [
        {
          "internalType": "bytes32",
          "name": "requestId",
          "type": "bytes32"
        }
      ],
      "stateMutability": "nonpayable",
      "type": "function"
    },
    {
      "inputs": [
        {
          "internalType": "uint256",
          "name": "_donationId",
          "type": "uint256"
        }
      ],
      "name": "hideDonation",
      "outputs": [],
      "stateMutability": "nonpayable",
      "type": "function"
    },
    {
      "inputs": [],
      "name": "owner",
      "outputs": [
        {
          "internalType": "address",
          "name": "",
          "type": "address"
        }
      ],
      "stateMutability": "view",
      "type": "function"
    },
    {
      "inputs": [
        {
          "internalType": "bytes",
          "name": "_performData",
          "type": "bytes"
        }
      ],
      "name": "performUpkeep",
      "outputs": [],
      "stateMutability": "nonpayable",
      "type": "function"
    },
    {
      "inputs": [],
      "name": "randomResult",
      "outputs": [
        {
          "internalType": "uint256",
          "name": "",
          "type": "uint256"
        }
      ],
      "stateMutability": "view",
      "type": "function"
    },
    {
      "inputs": [
        {
          "internalType": "bytes32",
          "name": "requestId",
          "type": "bytes32"
        },
        {
          "internalType": "uint256",
          "name": "randomness",
          "type": "uint256"
        }
      ],
      "name": "rawFulfillRandomness",
      "outputs": [],
      "stateMutability": "nonpayable",
      "type": "function"
    },
    {
      "inputs": [
        {
          "internalType": "uint256",
          "name": "_donationId",
          "type": "uint256"
        },
        {
          "internalType": "uint256",
          "name": "_endTime",
          "type": "uint256"
        }
      ],
      "name": "scheduleEndDonation",
      "outputs": [],
      "stateMutability": "nonpayable",
      "type": "function"
    }
  ],
  "bytecode": "0x60c06040523480156200001157600080fd5b50604051620020c1380380620020c183398101604081905262000034916200008d565b6001600160a01b0393841660a052918316608052600380546001600160a01b0319169490931693909317909155600491909155600555620000ea565b80516001600160a01b03811681146200008857600080fd5b919050565b600080600080600060a08688031215620000a657600080fd5b620000b18662000070565b9450620000c16020870162000070565b9350620000d16040870162000070565b6060870151608090970151959894975095949392505050565b60805160a051611fa36200011e600039600081816105a701526113e701526000818161062101526113b80152611fa36000f3fe608060405234801561001057600080fd5b50600436106100fc5760003560e01c80631c8ef305146101015780631cc4654d146101165780632abfab4d146101295780632cb8f793146101455780633197cbb614610158578063336ca9041461016157806342619f66146101745780634585e33b1461017d57806345f5d7ac146101905780636e04ff0d14610199578063785ffb37146101bf5780638da5cb5b146101c757806394985ddd146101d5578063b37217a4146101e8578063d87ffb70146101fb578063deb0d8831461020e578063e25f841614610221578063e39fea2d14610236578063ef07a81f1461023e578063f8626af81461025e575b600080fd5b61011461010f366004611877565b610285565b005b61011461012436600461191a565b610346565b61013260025481565b6040519081526020015b60405180910390f35b61013261015336600461193c565b6103e0565b61013260085481565b61011461016f366004611955565b61049b565b61013260065481565b61011461018b366004611a03565b610549565b61013260075481565b6101b16101a7366004611a03565b6007546064111591565b60405161013c929190611a98565b610132606481565b3360405161013c9190611ab3565b6101146101e336600461191a565b61059c565b6101326101f636600461193c565b61061a565b61011461020936600461191a565b610746565b61011461021c36600461193c565b6108df565b61022961098e565b60405161013c9190611c6a565b610132603281565b61025161024c36600461193c565b610e18565b60405161013c9190611ccc565b61027161026c36600461193c565b6111dc565b60405161013c989796959493929190611cdf565b610293565b60405180910390fd5b8082106102b25760405162461bcd60e51b815260040161028a90611d45565b6002546000908152600160209081526040909120875190916102d89183918a019061153a565b50600281018590556000600382015560048101859055835161030390600583019060208701906115be565b508551610319906006830190602089019061153a565b5060098101839055600a81018290556002805490600061033883611d8f565b919050555050505050505050565b8160025481106103685760405162461bcd60e51b815260040161028a90611daa565b6000838152600160205260409020600981015483116103d55760405162461bcd60e51b815260206004820152602360248201527f456e642074696d652073686f756c642062652061667465722073746172742074604482015262696d6560e81b606482015260840161028a565b600a01919091555050565b6000818152600160205260408082206003548251633fabe5a360e21b81529251919284926001600160a01b039092169163feaf968c9160048082019260a092909190829003018186803b15801561043657600080fd5b505afa15801561044a573d6000803e3d6000fd5b505050506040513d601f19601f8201168201806040525081019061046e9190611df7565b5050509150506305f5e1008183600301546104899190611e47565b6104939190611e66565b949350505050565b8660025481106104bd5760405162461bcd60e51b815260040161028a90611daa565b8183106104dc5760405162461bcd60e51b815260040161028a90611d45565b6000888152600160209081526040909120885190916104ff9183918b019061153a565b5060028101879055855161051c90600583019060208901906115be565b508451610532906006830190602088019061153a565b50600981019390935550600a909101555050505050565b606460075410156105945760405162461bcd60e51b8152602060048201526015602482015274151a1c995cda1bdb19081b9bdd081c995858da1959605a1b604482015260640161028a565b506000600755565b336001600160a01b037f000000000000000000000000000000000000000000000000000000000000000016146106145760405162461bcd60e51b815260206004820152601f60248201527f4f6e6c7920565246436f6f7264696e61746f722063616e2066756c66696c6c00604482015260640161028a565b60065550565b60006005547f00000000000000000000000000000000000000000000000000000000000000006001600160a01b03166370a08231306040518263ffffffff1660e01b815260040161066b9190611ab3565b60206040518083038186803b15801561068357600080fd5b505afa158015610697573d6000803e3d6000fd5b505050506040513d601f19601f820116820180604052508101906106bb9190611e88565b10156107215760405162461bcd60e51b815260206004820152602f60248201527f4e6f7420656e6f756768204c494e4b20746f6b656e7320746f2072657175657360448201526e3a103930b73237b690373ab6b132b960891b606482015260840161028a565b600082815260016020526040902060045460055461073f91906113b4565b9392505050565b8160025481106107685760405162461bcd60e51b815260040161028a90611daa565b600083815260016020526040902060098101544210156107d45760405162461bcd60e51b815260206004820152602160248201527f446f6e6174696f6e2063616d706169676e20686173206e6f74207374617274656044820152601960fa1b606482015260840161028a565b80600a01544211156108265760405162461bcd60e51b815260206004820152601b60248201527a111bdb985d1a5bdb8818d85b5c185a59db881a185cc8195b991959602a1b604482015260640161028a565b8281600301600082825461083a9190611ea1565b9091555050600381015460028201546108539190611eb9565b600482015560078101805460018181018355600092835260208084209092018690556008840180549182018155835291200180546001600160a01b0319163317905560028101546064906108a990603290611e47565b6108b39190611e66565b8160030154106108d9578060030154600760008282546108d39190611ea1565b90915550505b50505050565b8060025481106109015760405162461bcd60e51b815260040161028a90611daa565b60008281526001602052604081209061091a8282611617565b610928600183016000611617565b6002820160009055600382016000905560048201600090556005820160006109509190611654565b61095e600683016000611617565b61096c600783016000611672565b61097a600883016000611672565b50600060098201819055600a909101555050565b606060006002546001600160401b038111156109ac576109ac61171c565b6040519080825280602002602001820160405280156109e557816020015b6109d2611690565b8152602001906001900390816109ca5790505b50905060005b600254811015610e1257600081815260016020526040812060088101549091906001600160401b03811115610a2257610a2261171c565b604051908082528060200260200182016040528015610a4b578160200160208202803683370190505b50905060005b6008830154811015610aac57826007018181548110610a7257610a72611ed0565b9060005260206000200154828281518110610a8f57610a8f611ed0565b602090810291909101015280610aa481611d8f565b915050610a51565b50604051806101600160405280836000018054610ac890611ee6565b80601f0160208091040260200160405190810160405280929190818152602001828054610af490611ee6565b8015610b415780601f10610b1657610100808354040283529160200191610b41565b820191906000526020600020905b815481529060010190602001808311610b2457829003601f168201915b50505050508152602001836001018054610b5a90611ee6565b80601f0160208091040260200160405190810160405280929190818152602001828054610b8690611ee6565b8015610bd35780601f10610ba857610100808354040283529160200191610bd3565b820191906000526020600020905b815481529060010190602001808311610bb657829003601f168201915b5050505050815260200183600201548152602001836003015481526020018360040154815260200183600501805480602002602001604051908101604052809291908181526020016000905b82821015610ccb578382906000526020600020018054610c3e90611ee6565b80601f0160208091040260200160405190810160405280929190818152602001828054610c6a90611ee6565b8015610cb75780601f10610c8c57610100808354040283529160200191610cb7565b820191906000526020600020905b815481529060010190602001808311610c9a57829003601f168201915b505050505081526020019060010190610c1f565b505050508152602001836006018054610ce390611ee6565b80601f0160208091040260200160405190810160405280929190818152602001828054610d0f90611ee6565b8015610d5c5780601f10610d3157610100808354040283529160200191610d5c565b820191906000526020600020905b815481529060010190602001808311610d3f57829003601f168201915b5050505050815260200182815260200183600801805480602002602001604051908101604052809291908181526020018280548015610dc457602002820191906000526020600020905b81546001600160a01b03168152600190910190602001808311610da6575b505050505081526020018360090154815260200183600a0154815250848481518110610df257610df2611ed0565b602002602001018190525050508080610e0a90611d8f565b9150506109eb565b50919050565b610e20611690565b6002548210610e415760405162461bcd60e51b815260040161028a90611daa565b6000828152600160205260409081902081516101608101909252805482908290610e6a90611ee6565b80601f0160208091040260200160405190810160405280929190818152602001828054610e9690611ee6565b8015610ee35780601f10610eb857610100808354040283529160200191610ee3565b820191906000526020600020905b815481529060010190602001808311610ec657829003601f168201915b50505050508152602001600182018054610efc90611ee6565b80601f0160208091040260200160405190810160405280929190818152602001828054610f2890611ee6565b8015610f755780601f10610f4a57610100808354040283529160200191610f75565b820191906000526020600020905b815481529060010190602001808311610f5857829003601f168201915b5050505050815260200160028201548152602001600382015481526020016004820154815260200160058201805480602002602001604051908101604052809291908181526020016000905b8282101561106d578382906000526020600020018054610fe090611ee6565b80601f016020809104026020016040519081016040528092919081815260200182805461100c90611ee6565b80156110595780601f1061102e57610100808354040283529160200191611059565b820191906000526020600020905b81548152906001019060200180831161103c57829003601f168201915b505050505081526020019060010190610fc1565b50505050815260200160068201805461108590611ee6565b80601f01602080910402602001604051908101604052809291908181526020018280546110b190611ee6565b80156110fe5780601f106110d3576101008083540402835291602001916110fe565b820191906000526020600020905b8154815290600101906020018083116110e157829003601f168201915b505050505081526020016007820180548060200260200160405190810160405280929190818152602001828054801561115657602002820191906000526020600020905b815481526020019060010190808311611142575b50505050508152602001600882018054806020026020016040519081016040528092919081815260200182805480156111b857602002820191906000526020600020905b81546001600160a01b0316815260019091019060200180831161119a575b5050505050815260200160098201548152602001600a820154815250509050919050565b6001602052600090815260409020805481906111f790611ee6565b80601f016020809104026020016040519081016040528092919081815260200182805461122390611ee6565b80156112705780601f1061124557610100808354040283529160200191611270565b820191906000526020600020905b81548152906001019060200180831161125357829003601f168201915b50505050509080600101805461128590611ee6565b80601f01602080910402602001604051908101604052809291908181526020018280546112b190611ee6565b80156112fe5780601f106112d3576101008083540402835291602001916112fe565b820191906000526020600020905b8154815290600101906020018083116112e157829003601f168201915b50505050509080600201549080600301549080600401549080600601805461132590611ee6565b80601f016020809104026020016040519081016040528092919081815260200182805461135190611ee6565b801561139e5780601f106113735761010080835404028352916020019161139e565b820191906000526020600020905b81548152906001019060200180831161138157829003601f168201915b50505050509080600901549080600a0154905088565b60007f00000000000000000000000000000000000000000000000000000000000000006001600160a01b0316634000aea07f000000000000000000000000000000000000000000000000000000000000000084866000604051602001611424929190918252602082015260400190565b6040516020818303038152906040526040518463ffffffff1660e01b815260040161145193929190611f1b565b602060405180830381600087803b15801561146b57600080fd5b505af115801561147f573d6000803e3d6000fd5b505050506040513d601f19601f820116820180604052508101906114a39190611f4b565b5060008381526020818152604080832054815180840188905280830185905230606082015260808082018390528351808303909101815260a0909101909252815191830191909120868452929091526114fd906001611ea1565b6000858152602081815260409182902092909255805180830187905280820184905281518082038301815260609091019091528051910120610493565b82805461154690611ee6565b90600052602060002090601f01602090048101928261156857600085556115ae565b82601f1061158157805160ff19168380011785556115ae565b828001600101855582156115ae579182015b828111156115ae578251825591602001919060010190611593565b506115ba9291506116ea565b5090565b82805482825590600052602060002090810192821561160b579160200282015b8281111561160b57825180516115fb91849160209091019061153a565b50916020019190600101906115de565b506115ba9291506116ff565b50805461162390611ee6565b6000825580601f10611633575050565b601f01602090049060005260206000209081019061165191906116ea565b50565b508054600082559060005260206000209081019061165191906116ff565b508054600082559060005260206000209081019061165191906116ea565b60405180610160016040528060608152602001606081526020016000815260200160008152602001600081526020016060815260200160608152602001606081526020016060815260200160008152602001600081525090565b5b808211156115ba57600081556001016116eb565b808211156115ba5760006117138282611617565b506001016116ff565b634e487b7160e01b600052604160045260246000fd5b604051601f8201601f191681016001600160401b038111828210171561175a5761175a61171c565b604052919050565b60006001600160401b0383111561177b5761177b61171c565b61178e601f8401601f1916602001611732565b90508281528383830111156117a257600080fd5b828260208301376000602084830101529392505050565b600082601f8301126117ca57600080fd5b61073f83833560208501611762565b600082601f8301126117ea57600080fd5b813560206001600160401b03808311156118065761180661171c565b8260051b611815838201611732565b938452858101830193838101908886111561182f57600080fd5b84880192505b8583101561186b5782358481111561184d5760008081fd5b61185b8a87838c01016117b9565b8352509184019190840190611835565b98975050505050505050565b60008060008060008060c0878903121561189057600080fd5b86356001600160401b03808211156118a757600080fd5b6118b38a838b016117b9565b975060208901359150808211156118c957600080fd5b6118d58a838b016117b9565b96506040890135955060608901359150808211156118f257600080fd5b506118ff89828a016117d9565b9350506080870135915060a087013590509295509295509295565b6000806040838503121561192d57600080fd5b50508035926020909101359150565b60006020828403121561194e57600080fd5b5035919050565b600080600080600080600060e0888a03121561197057600080fd5b8735965060208801356001600160401b038082111561198e57600080fd5b61199a8b838c016117b9565b975060408a0135965060608a01359150808211156119b757600080fd5b6119c38b838c016117d9565b955060808a01359150808211156119d957600080fd5b506119e68a828b016117b9565b93505060a0880135915060c0880135905092959891949750929550565b600060208284031215611a1557600080fd5b81356001600160401b03811115611a2b57600080fd5b8201601f81018413611a3c57600080fd5b61049384823560208401611762565b6000815180845260005b81811015611a7157602081850181015186830182015201611a55565b81811115611a83576000602083870101525b50601f01601f19169290920160200192915050565b82151581526040602082015260006104936040830184611a4b565b6001600160a01b0391909116815260200190565b600081518084526020808501808196508360051b8101915082860160005b85811015611b0f578284038952611afd848351611a4b565b98850198935090840190600101611ae5565b5091979650505050505050565b600081518084526020808501945080840160005b83811015611b4c57815187529582019590820190600101611b30565b509495945050505050565b600081518084526020808501945080840160005b83811015611b4c5781516001600160a01b031687529582019590820190600101611b6b565b60006101608251818552611ba682860182611a4b565b91505060208301518482036020860152611bc08282611a4b565b91505060408301516040850152606083015160608501526080830151608085015260a083015184820360a0860152611bf88282611ac7565b91505060c083015184820360c0860152611c128282611a4b565b91505060e083015184820360e0860152611c2c8282611b1c565b9150506101008084015185830382870152611c478382611b57565b610120868101519088015261014095860151959096019490945250929392505050565b6000602080830181845280855180835260408601915060408160051b870101925083870160005b82811015611cbf57603f19888603018452611cad858351611b90565b94509285019290850190600101611c91565b5092979650505050505050565b60208152600061073f6020830184611b90565b6000610100808352611cf38184018c611a4b565b90508281036020840152611d07818b611a4b565b905088604084015287606084015286608084015282810360a0840152611d2d8187611a4b565b60c0840195909552505060e001529695505050505050565b6020808252601a9082015279496e76616c696420737461727420616e6420656e642074696d6560301b604082015260600190565b634e487b7160e01b600052601160045260246000fd5b6000600019821415611da357611da3611d79565b5060010190565b602080825260179082015276111bdb985d1a5bdb88191bd95cc81b9bdd08195e1a5cdd604a1b604082015260600190565b80516001600160501b0381168114611df257600080fd5b919050565b600080600080600060a08688031215611e0f57600080fd5b611e1886611ddb565b9450602086015193506040860151925060608601519150611e3b60808701611ddb565b90509295509295909350565b6000816000190483118215151615611e6157611e61611d79565b500290565b600082611e8357634e487b7160e01b600052601260045260246000fd5b500490565b600060208284031215611e9a57600080fd5b5051919050565b60008219821115611eb457611eb4611d79565b500190565b600082821015611ecb57611ecb611d79565b500390565b634e487b7160e01b600052603260045260246000fd5b600181811c90821680611efa57607f821691505b60208210811415610e1257634e487b7160e01b600052602260045260246000fd5b60018060a01b0384168152826020820152606060408201526000611f426060830184611a4b565b95945050505050565b600060208284031215611f5d57600080fd5b8151801515811461073f57600080fdfea26469706673582212201ee114281cc1f52be5e4ba5142611c93757a498b123d7b72da8e69e7e733b7df64736f6c63430008090033",
  "linkReferences": {},
  "deployedLinkReferences": {}
}