{
  "_format": "hh-sol-artifact-1",
  "contractName": "World3",
  "sourceName": "contracts/World3.sol",
  "abi": [
    {
      "inputs": [
        {
          "internalType": "address",
          "name": "_priceFeedAddress",
          "type": "address"
        },
        {
          "internalType": "address",
          "name": "_vrfCoordinator",
          "type": "address"
        },
        {
          "internalType": "address",
          "name": "_linkToken",
          "type": "address"
        },
        {
          "internalType": "bytes32",
          "name": "_keyHash",
          "type": "bytes32"
        },
        {
          "internalType": "uint256",
          "name": "_fee",
          "type": "uint256"
        }
      ],
      "stateMutability": "nonpayable",
      "type": "constructor"
    },
    {
      "inputs": [],
      "name": "MIN_THRESHOLD_PERCENTAGE",
      "outputs": [
        {
          "internalType": "uint256",
          "name": "",
          "type": "uint256"
        }
      ],
      "stateMutability": "view",
      "type": "function"
    },
    {
      "inputs": [],
      "name": "THRESHOLD",
      "outputs": [
        {
          "internalType": "uint256",
          "name": "",
          "type": "uint256"
        }
      ],
      "stateMutability": "view",
      "type": "function"
    },
    {
      "inputs": [
        {
          "internalType": "uint256",
          "name": "_donationId",
          "type": "uint256"
        },
        {
          "internalType": "uint256",
          "name": "_amount",
          "type": "uint256"
        }
      ],
      "name": "addDonation",
      "outputs": [],
      "stateMutability": "nonpayable",
      "type": "function"
    },
    {
      "inputs": [
        {
          "internalType": "bytes",
          "name": "_data",
          "type": "bytes"
        }
      ],
      "name": "checkUpkeep",
      "outputs": [
        {
          "internalType": "bool",
          "name": "upkeepNeeded",
          "type": "bool"
        },
        {
          "internalType": "bytes",
          "name": "performData",
          "type": "bytes"
        }
      ],
      "stateMutability": "view",
      "type": "function"
    },
    {
      "inputs": [
        {
          "internalType": "string",
          "name": "_name",
          "type": "string"
        },
        {
          "internalType": "string",
          "name": "_description",
          "type": "string"
        },
        {
          "internalType": "uint256",
          "name": "_goal",
          "type": "uint256"
        },
        {
          "internalType": "string[]",
          "name": "_pictures",
          "type": "string[]"
        },
        {
          "internalType": "string",
          "name": "_category",
          "type": "string"
        },
        {
          "internalType": "uint256",
          "name": "_startTime",
          "type": "uint256"
        },
        {
          "internalType": "uint256",
          "name": "_endTime",
          "type": "uint256"
        },
        {
          "internalType": "string",
          "name": "_county",
          "type": "string"
        }
      ],
      "name": "createDonation",
      "outputs": [],
      "stateMutability": "nonpayable",
      "type": "function"
    },
    {
      "inputs": [],
      "name": "donationAccumulated",
      "outputs": [
        {
          "internalType": "uint256",
          "name": "",
          "type": "uint256"
        }
      ],
      "stateMutability": "view",
      "type": "function"
    },
    {
      "inputs": [],
      "name": "donationCount",
      "outputs": [
        {
          "internalType": "uint256",
          "name": "",
          "type": "uint256"
        }
      ],
      "stateMutability": "view",
      "type": "function"
    },
    {
      "inputs": [
        {
          "internalType": "uint256",
          "name": "",
          "type": "uint256"
        }
      ],
      "name": "donations",
      "outputs": [
        {
          "internalType": "string",
          "name": "name",
          "type": "string"
        },
        {
          "internalType": "string",
          "name": "description",
          "type": "string"
        },
        {
          "internalType": "uint256",
          "name": "goal",
          "type": "uint256"
        },
        {
          "internalType": "uint256",
          "name": "amountRaised",
          "type": "uint256"
        },
        {
          "internalType": "uint256",
          "name": "toGo",
          "type": "uint256"
        },
        {
          "internalType": "string",
          "name": "category",
          "type": "string"
        },
        {
          "internalType": "uint256",
          "name": "startTime",
          "type": "uint256"
        },
        {
          "internalType": "uint256",
          "name": "endTime",
          "type": "uint256"
        },
        {
          "internalType": "string",
          "name": "county",
          "type": "string"
        }
      ],
      "stateMutability": "view",
      "type": "function"
    },
    {
      "inputs": [
        {
          "internalType": "uint256",
          "name": "_donationId",
          "type": "uint256"
        },
        {
          "internalType": "string",
          "name": "_name",
          "type": "string"
        },
        {
          "internalType": "string",
          "name": "_description",
          "type": "string"
        },
        {
          "internalType": "uint256",
          "name": "_goal",
          "type": "uint256"
        },
        {
          "internalType": "string[]",
          "name": "_pictures",
          "type": "string[]"
        },
        {
          "internalType": "string",
          "name": "_category",
          "type": "string"
        },
        {
          "internalType": "uint256",
          "name": "_startTime",
          "type": "uint256"
        },
        {
          "internalType": "uint256",
          "name": "_endTime",
          "type": "uint256"
        },
        {
          "internalType": "string",
          "name": "_county",
          "type": "string"
        }
      ],
      "name": "editDonation",
      "outputs": [],
      "stateMutability": "nonpayable",
      "type": "function"
    },
    {
      "inputs": [],
      "name": "endTime",
      "outputs": [
        {
          "internalType": "uint256",
          "name": "",
          "type": "uint256"
        }
      ],
      "stateMutability": "view",
      "type": "function"
    },
    {
      "inputs": [
        {
          "internalType": "uint256",
          "name": "_donationId",
          "type": "uint256"
        }
      ],
      "name": "getDonation",
      "outputs": [
        {
          "components": [
            {
              "internalType": "string",
              "name": "name",
              "type": "string"
            },
            {
              "internalType": "string",
              "name": "description",
              "type": "string"
            },
            {
              "internalType": "uint256",
              "name": "goal",
              "type": "uint256"
            },
            {
              "internalType": "uint256",
              "name": "amountRaised",
              "type": "uint256"
            },
            {
              "internalType": "uint256",
              "name": "toGo",
              "type": "uint256"
            },
            {
              "internalType": "string[]",
              "name": "pictures",
              "type": "string[]"
            },
            {
              "internalType": "string",
              "name": "category",
              "type": "string"
            },
            {
              "internalType": "uint256[]",
              "name": "donorAmounts",
              "type": "uint256[]"
            },
            {
              "internalType": "address[]",
              "name": "donors",
              "type": "address[]"
            },
            {
              "internalType": "uint256",
              "name": "startTime",
              "type": "uint256"
            },
            {
              "internalType": "uint256",
              "name": "endTime",
              "type": "uint256"
            },
            {
              "internalType": "string",
              "name": "county",
              "type": "string"
            }
          ],
          "internalType": "struct World3.Donation",
          "name": "",
          "type": "tuple"
        }
      ],
      "stateMutability": "view",
      "type": "function"
    },
    {
      "inputs": [
        {
          "internalType": "uint256",
          "name": "_donationId",
          "type": "uint256"
        }
      ],
      "name": "getDonationValueInUSD",
      "outputs": [
        {
          "internalType": "uint256",
          "name": "",
          "type": "uint256"
        }
      ],
      "stateMutability": "view",
      "type": "function"
    },
    {
      "inputs": [],
      "name": "getDonations",
      "outputs": [
        {
          "components": [
            {
              "internalType": "string",
              "name": "name",
              "type": "string"
            },
            {
              "internalType": "string",
              "name": "description",
              "type": "string"
            },
            {
              "internalType": "uint256",
              "name": "goal",
              "type": "uint256"
            },
            {
              "internalType": "uint256",
              "name": "amountRaised",
              "type": "uint256"
            },
            {
              "internalType": "uint256",
              "name": "toGo",
              "type": "uint256"
            },
            {
              "internalType": "string[]",
              "name": "pictures",
              "type": "string[]"
            },
            {
              "internalType": "string",
              "name": "category",
              "type": "string"
            },
            {
              "internalType": "uint256[]",
              "name": "donorAmounts",
              "type": "uint256[]"
            },
            {
              "internalType": "address[]",
              "name": "donors",
              "type": "address[]"
            },
            {
              "internalType": "uint256",
              "name": "startTime",
              "type": "uint256"
            },
            {
              "internalType": "uint256",
              "name": "endTime",
              "type": "uint256"
            },
            {
              "internalType": "string",
              "name": "county",
              "type": "string"
            }
          ],
          "internalType": "struct World3.Donation[]",
          "name": "",
          "type": "tuple[]"
        }
      ],
      "stateMutability": "view",
      "type": "function"
    },
    {
      "inputs": [
        {
          "internalType": "uint256",
          "name": "_donationId",
          "type": "uint256"
        }
      ],
      "name": "getRandomNumber",
      "outputs": [
        {
          "internalType": "bytes32",
          "name": "requestId",
          "type": "bytes32"
        }
      ],
      "stateMutability": "nonpayable",
      "type": "function"
    },
    {
      "inputs": [
        {
          "internalType": "address",
          "name": "_user",
          "type": "address"
        }
      ],
      "name": "getUserDonations",
      "outputs": [
        {
          "components": [
            {
              "internalType": "string",
              "name": "name",
              "type": "string"
            },
            {
              "internalType": "string",
              "name": "description",
              "type": "string"
            },
            {
              "internalType": "uint256",
              "name": "goal",
              "type": "uint256"
            },
            {
              "internalType": "uint256",
              "name": "amountRaised",
              "type": "uint256"
            },
            {
              "internalType": "uint256",
              "name": "toGo",
              "type": "uint256"
            },
            {
              "internalType": "string[]",
              "name": "pictures",
              "type": "string[]"
            },
            {
              "internalType": "string",
              "name": "category",
              "type": "string"
            },
            {
              "internalType": "uint256[]",
              "name": "donorAmounts",
              "type": "uint256[]"
            },
            {
              "internalType": "address[]",
              "name": "donors",
              "type": "address[]"
            },
            {
              "internalType": "uint256",
              "name": "startTime",
              "type": "uint256"
            },
            {
              "internalType": "uint256",
              "name": "endTime",
              "type": "uint256"
            },
            {
              "internalType": "string",
              "name": "county",
              "type": "string"
            }
          ],
          "internalType": "struct World3.Donation[]",
          "name": "",
          "type": "tuple[]"
        }
      ],
      "stateMutability": "view",
      "type": "function"
    },
    {
      "inputs": [
        {
          "internalType": "uint256",
          "name": "_donationId",
          "type": "uint256"
        }
      ],
      "name": "hideDonation",
      "outputs": [],
      "stateMutability": "nonpayable",
      "type": "function"
    },
    {
      "inputs": [],
      "name": "owner",
      "outputs": [
        {
          "internalType": "address",
          "name": "",
          "type": "address"
        }
      ],
      "stateMutability": "view",
      "type": "function"
    },
    {
      "inputs": [
        {
          "internalType": "bytes",
          "name": "_performData",
          "type": "bytes"
        }
      ],
      "name": "performUpkeep",
      "outputs": [],
      "stateMutability": "nonpayable",
      "type": "function"
    },
    {
      "inputs": [],
      "name": "randomResult",
      "outputs": [
        {
          "internalType": "uint256",
          "name": "",
          "type": "uint256"
        }
      ],
      "stateMutability": "view",
      "type": "function"
    },
    {
      "inputs": [
        {
          "internalType": "bytes32",
          "name": "requestId",
          "type": "bytes32"
        },
        {
          "internalType": "uint256",
          "name": "randomness",
          "type": "uint256"
        }
      ],
      "name": "rawFulfillRandomness",
      "outputs": [],
      "stateMutability": "nonpayable",
      "type": "function"
    },
    {
      "inputs": [
        {
          "internalType": "uint256",
          "name": "_donationId",
          "type": "uint256"
        },
        {
          "internalType": "uint256",
          "name": "_endTime",
          "type": "uint256"
        }
      ],
      "name": "scheduleEndDonation",
      "outputs": [],
      "stateMutability": "nonpayable",
      "type": "function"
    }
  ],
  "bytecode": "0x60c06040523480156200001157600080fd5b50604051620029523803806200295283398101604081905262000034916200008d565b6001600160a01b0393841660a052918316608052600480546001600160a01b0319169490931693909317909155600591909155600655620000ea565b80516001600160a01b03811681146200008857600080fd5b919050565b600080600080600060a08688031215620000a657600080fd5b620000b18662000070565b9450620000c16020870162000070565b9350620000d16040870162000070565b6060870151608090970151959894975095949392505050565b60805160a0516128346200011e60003960008181610a890152611b83015260008181610b030152611b5401526128346000f3fe608060405234801561001057600080fd5b50600436106101075760003560e01c80631cc4654d1461010c5780632abfab4d146101215780632cb8f7931461013d5780633197cbb61461015057806342619f66146101595780634585e33b1461016257806345f5d7ac14610175578063669c2f811461017e5780636e04ff0d14610191578063732435b2146101b7578063785ffb37146101d75780638da5cb5b146101df57806394985ddd146101ed578063b37217a414610200578063d87ffb7014610213578063deb0d88314610226578063e25f841614610239578063e39fea2d14610241578063ef07a81f14610249578063f12c754c14610269578063f8626af81461027c575b600080fd5b61011f61011a366004611ebb565b6102a4565b005b61012a60035481565b6040519081526020015b60405180910390f35b61012a61014b366004611edd565b61034c565b61012a60095481565b61012a60075481565b61011f610170366004611f93565b610404565b61012a60085481565b61011f61018c366004612099565b610457565b6101a961019f366004611f93565b6008546064111591565b6040516101349291906121d4565b6101ca6101c53660046121ef565b610538565b60405161013491906123d6565b61012a606481565b336040516101349190612438565b61011f6101fb366004611ebb565b610a7e565b61012a61020e366004611edd565b610afc565b61011f610221366004611ebb565b610c28565b61011f610234366004611edd565b610dde565b6101ca610e99565b61012a603281565b61025c610257366004611edd565b6113b5565b604051610134919061244c565b61011f61027736600461245f565b61180b565b61028f61028a366004611edd565b6118ea565b60405161013499989796959493929190612557565b6102b2565b60405180910390fd5b8160035481106102d45760405162461bcd60e51b81526004016102a9906125d6565b6000838152600260205260409020600981015483116103415760405162461bcd60e51b815260206004820152602360248201527f456e642074696d652073686f756c642062652061667465722073746172742074604482015262696d6560e81b60648201526084016102a9565b600a01919091555050565b600081815260026020526040808220600480548351633fabe5a360e21b81529351929385936001600160a01b039092169263feaf968c928282019260a09290829003018186803b15801561039f57600080fd5b505afa1580156103b3573d6000803e3d6000fd5b505050506040513d601f19601f820116820180604052508101906103d79190612623565b5050509150506305f5e1008183600301546103f29190612689565b6103fc91906126a8565b949350505050565b6064600854101561044f5760405162461bcd60e51b8152602060048201526015602482015274151a1c995cda1bdb19081b9bdd081c995858da1959605a1b60448201526064016102a9565b506000600855565b8183106104765760405162461bcd60e51b81526004016102a9906126ca565b60035460009081526002602090815260409091208951909161049c9183918c0190611cd6565b5087516104b290600183019060208b0190611cd6565b5060028101879055600060038201556004810187905585516104dd9060058301906020890190611d5a565b5084516104f39060068301906020880190611cd6565b5060098101849055600a8101839055815161051790600b8301906020850190611cd6565b5060038054906000610528836126fe565b9190505550505050505050505050565b6001600160a01b038116600090815260016020908152604080832080548251818502810185019093528083526060949383018282801561059757602002820191906000526020600020905b815481526020019060010190808311610583575b50505050509050600081516001600160401b038111156105b9576105b9611ef6565b6040519080825280602002602001820160405280156105f257816020015b6105df611db3565b8152602001906001900390816105d75790505b50905060005b8251811015610a76576002600084838151811061061757610617612719565b60200260200101518152602001908152602001600020604051806101800160405290816000820180546106499061272f565b80601f01602080910402602001604051908101604052809291908181526020018280546106759061272f565b80156106c25780601f10610697576101008083540402835291602001916106c2565b820191906000526020600020905b8154815290600101906020018083116106a557829003601f168201915b505050505081526020016001820180546106db9061272f565b80601f01602080910402602001604051908101604052809291908181526020018280546107079061272f565b80156107545780601f1061072957610100808354040283529160200191610754565b820191906000526020600020905b81548152906001019060200180831161073757829003601f168201915b5050505050815260200160028201548152602001600382015481526020016004820154815260200160058201805480602002602001604051908101604052809291908181526020016000905b8282101561084c5783829060005260206000200180546107bf9061272f565b80601f01602080910402602001604051908101604052809291908181526020018280546107eb9061272f565b80156108385780601f1061080d57610100808354040283529160200191610838565b820191906000526020600020905b81548152906001019060200180831161081b57829003601f168201915b5050505050815260200190600101906107a0565b5050505081526020016006820180546108649061272f565b80601f01602080910402602001604051908101604052809291908181526020018280546108909061272f565b80156108dd5780601f106108b2576101008083540402835291602001916108dd565b820191906000526020600020905b8154815290600101906020018083116108c057829003601f168201915b505050505081526020016007820180548060200260200160405190810160405280929190818152602001828054801561093557602002820191906000526020600020905b815481526020019060010190808311610921575b505050505081526020016008820180548060200260200160405190810160405280929190818152602001828054801561099757602002820191906000526020600020905b81546001600160a01b03168152600190910190602001808311610979575b5050505050815260200160098201548152602001600a8201548152602001600b820180546109c49061272f565b80601f01602080910402602001604051908101604052809291908181526020018280546109f09061272f565b8015610a3d5780601f10610a1257610100808354040283529160200191610a3d565b820191906000526020600020905b815481529060010190602001808311610a2057829003601f168201915b505050505081525050828281518110610a5857610a58612719565b60200260200101819052508080610a6e906126fe565b9150506105f8565b509392505050565b336001600160a01b037f00000000000000000000000000000000000000000000000000000000000000001614610af65760405162461bcd60e51b815260206004820152601f60248201527f4f6e6c7920565246436f6f7264696e61746f722063616e2066756c66696c6c0060448201526064016102a9565b60075550565b60006006547f00000000000000000000000000000000000000000000000000000000000000006001600160a01b03166370a08231306040518263ffffffff1660e01b8152600401610b4d9190612438565b60206040518083038186803b158015610b6557600080fd5b505afa158015610b79573d6000803e3d6000fd5b505050506040513d601f19601f82011682018060405250810190610b9d9190612764565b1015610c035760405162461bcd60e51b815260206004820152602f60248201527f4e6f7420656e6f756768204c494e4b20746f6b656e7320746f2072657175657360448201526e3a103930b73237b690373ab6b132b960891b60648201526084016102a9565b6000828152600260205260409020600554600654610c219190611b50565b9392505050565b816003548110610c4a5760405162461bcd60e51b81526004016102a9906125d6565b60008381526002602052604090206009810154421015610cb65760405162461bcd60e51b815260206004820152602160248201527f446f6e6174696f6e2063616d706169676e20686173206e6f74207374617274656044820152601960fa1b60648201526084016102a9565b80600a0154421115610d085760405162461bcd60e51b815260206004820152601b60248201527a111bdb985d1a5bdb8818d85b5c185a59db881a185cc8195b991959602a1b60448201526064016102a9565b82816003016000828254610d1c919061277d565b909155505060038101546002820154610d359190612795565b6004820155600781018054600181810183556000928352602080842090920186905560088401805480830182559084528284200180546001600160a01b031916339081179091558352808252604083208054918201815583529120018490556002810154606490610da890603290612689565b610db291906126a8565b816003015410610dd857806003015460086000828254610dd2919061277d565b90915550505b50505050565b806003548110610e005760405162461bcd60e51b81526004016102a9906125d6565b600082815260026020526040812090610e198282611e14565b610e27600183016000611e14565b600282016000905560038201600090556004820160009055600582016000610e4f9190611e51565b610e5d600683016000611e14565b610e6b600783016000611e6f565b610e79600883016000611e6f565b6009820160009055600a820160009055600b82016000610dd89190611e14565b606060006003546001600160401b03811115610eb757610eb7611ef6565b604051908082528060200260200182016040528015610ef057816020015b610edd611db3565b815260200190600190039081610ed55790505b50905060005b6003548110156113af57600081815260026020526040812060088101549091906001600160401b03811115610f2d57610f2d611ef6565b604051908082528060200260200182016040528015610f56578160200160208202803683370190505b50905060005b6008830154811015610fb757826007018181548110610f7d57610f7d612719565b9060005260206000200154828281518110610f9a57610f9a612719565b602090810291909101015280610faf816126fe565b915050610f5c565b50604051806101800160405280836000018054610fd39061272f565b80601f0160208091040260200160405190810160405280929190818152602001828054610fff9061272f565b801561104c5780601f106110215761010080835404028352916020019161104c565b820191906000526020600020905b81548152906001019060200180831161102f57829003601f168201915b505050505081526020018360010180546110659061272f565b80601f01602080910402602001604051908101604052809291908181526020018280546110919061272f565b80156110de5780601f106110b3576101008083540402835291602001916110de565b820191906000526020600020905b8154815290600101906020018083116110c157829003601f168201915b5050505050815260200183600201548152602001836003015481526020018360040154815260200183600501805480602002602001604051908101604052809291908181526020016000905b828210156111d65783829060005260206000200180546111499061272f565b80601f01602080910402602001604051908101604052809291908181526020018280546111759061272f565b80156111c25780601f10611197576101008083540402835291602001916111c2565b820191906000526020600020905b8154815290600101906020018083116111a557829003601f168201915b50505050508152602001906001019061112a565b5050505081526020018360060180546111ee9061272f565b80601f016020809104026020016040519081016040528092919081815260200182805461121a9061272f565b80156112675780601f1061123c57610100808354040283529160200191611267565b820191906000526020600020905b81548152906001019060200180831161124a57829003601f168201915b50505050508152602001828152602001836008018054806020026020016040519081016040528092919081815260200182805480156112cf57602002820191906000526020600020905b81546001600160a01b031681526001909101906020018083116112b1575b505050505081526020018360090154815260200183600a0154815260200183600b0180546112fc9061272f565b80601f01602080910402602001604051908101604052809291908181526020018280546113289061272f565b80156113755780601f1061134a57610100808354040283529160200191611375565b820191906000526020600020905b81548152906001019060200180831161135857829003601f168201915b505050505081525084848151811061138f5761138f612719565b6020026020010181905250505080806113a7906126fe565b915050610ef6565b50919050565b6113bd611db3565b60035482106113de5760405162461bcd60e51b81526004016102a9906125d6565b60008281526002602052604090819020815161018081019092528054829082906114079061272f565b80601f01602080910402602001604051908101604052809291908181526020018280546114339061272f565b80156114805780601f1061145557610100808354040283529160200191611480565b820191906000526020600020905b81548152906001019060200180831161146357829003601f168201915b505050505081526020016001820180546114999061272f565b80601f01602080910402602001604051908101604052809291908181526020018280546114c59061272f565b80156115125780601f106114e757610100808354040283529160200191611512565b820191906000526020600020905b8154815290600101906020018083116114f557829003601f168201915b5050505050815260200160028201548152602001600382015481526020016004820154815260200160058201805480602002602001604051908101604052809291908181526020016000905b8282101561160a57838290600052602060002001805461157d9061272f565b80601f01602080910402602001604051908101604052809291908181526020018280546115a99061272f565b80156115f65780601f106115cb576101008083540402835291602001916115f6565b820191906000526020600020905b8154815290600101906020018083116115d957829003601f168201915b50505050508152602001906001019061155e565b5050505081526020016006820180546116229061272f565b80601f016020809104026020016040519081016040528092919081815260200182805461164e9061272f565b801561169b5780601f106116705761010080835404028352916020019161169b565b820191906000526020600020905b81548152906001019060200180831161167e57829003601f168201915b50505050508152602001600782018054806020026020016040519081016040528092919081815260200182805480156116f357602002820191906000526020600020905b8154815260200190600101908083116116df575b505050505081526020016008820180548060200260200160405190810160405280929190818152602001828054801561175557602002820191906000526020600020905b81546001600160a01b03168152600190910190602001808311611737575b5050505050815260200160098201548152602001600a8201548152602001600b820180546117829061272f565b80601f01602080910402602001604051908101604052809291908181526020018280546117ae9061272f565b80156117fb5780601f106117d0576101008083540402835291602001916117fb565b820191906000526020600020905b8154815290600101906020018083116117de57829003601f168201915b5050505050815250509050919050565b88600354811061182d5760405162461bcd60e51b81526004016102a9906125d6565b82841061184c5760405162461bcd60e51b81526004016102a9906126ca565b60008a81526002602090815260409091208a51909161186f9183918d0190611cd6565b50885161188590600183019060208c0190611cd6565b506002810188905586516118a290600583019060208a0190611d5a565b5085516118b89060068301906020890190611cd6565b5060098101859055600a810184905582516118dc90600b8301906020860190611cd6565b505050505050505050505050565b6002602052600090815260409020805481906119059061272f565b80601f01602080910402602001604051908101604052809291908181526020018280546119319061272f565b801561197e5780601f106119535761010080835404028352916020019161197e565b820191906000526020600020905b81548152906001019060200180831161196157829003601f168201915b5050505050908060010180546119939061272f565b80601f01602080910402602001604051908101604052809291908181526020018280546119bf9061272f565b8015611a0c5780601f106119e157610100808354040283529160200191611a0c565b820191906000526020600020905b8154815290600101906020018083116119ef57829003601f168201915b505050505090806002015490806003015490806004015490806006018054611a339061272f565b80601f0160208091040260200160405190810160405280929190818152602001828054611a5f9061272f565b8015611aac5780601f10611a8157610100808354040283529160200191611aac565b820191906000526020600020905b815481529060010190602001808311611a8f57829003601f168201915b50505050509080600901549080600a01549080600b018054611acd9061272f565b80601f0160208091040260200160405190810160405280929190818152602001828054611af99061272f565b8015611b465780601f10611b1b57610100808354040283529160200191611b46565b820191906000526020600020905b815481529060010190602001808311611b2957829003601f168201915b5050505050905089565b60007f00000000000000000000000000000000000000000000000000000000000000006001600160a01b0316634000aea07f000000000000000000000000000000000000000000000000000000000000000084866000604051602001611bc0929190918252602082015260400190565b6040516020818303038152906040526040518463ffffffff1660e01b8152600401611bed939291906127ac565b602060405180830381600087803b158015611c0757600080fd5b505af1158015611c1b573d6000803e3d6000fd5b505050506040513d601f19601f82011682018060405250810190611c3f91906127dc565b5060008381526020818152604080832054815180840188905280830185905230606082015260808082018390528351808303909101815260a090910190925281519183019190912086845292909152611c9990600161277d565b60008581526020818152604091829020929092558051808301879052808201849052815180820383018152606090910190915280519101206103fc565b828054611ce29061272f565b90600052602060002090601f016020900481019282611d045760008555611d4a565b82601f10611d1d57805160ff1916838001178555611d4a565b82800160010185558215611d4a579182015b82811115611d4a578251825591602001919060010190611d2f565b50611d56929150611e89565b5090565b828054828255906000526020600020908101928215611da7579160200282015b82811115611da75782518051611d97918491602090910190611cd6565b5091602001919060010190611d7a565b50611d56929150611e9e565b6040518061018001604052806060815260200160608152602001600081526020016000815260200160008152602001606081526020016060815260200160608152602001606081526020016000815260200160008152602001606081525090565b508054611e209061272f565b6000825580601f10611e30575050565b601f016020900490600052602060002090810190611e4e9190611e89565b50565b5080546000825590600052602060002090810190611e4e9190611e9e565b5080546000825590600052602060002090810190611e4e91905b5b80821115611d565760008155600101611e8a565b80821115611d56576000611eb28282611e14565b50600101611e9e565b60008060408385031215611ece57600080fd5b50508035926020909101359150565b600060208284031215611eef57600080fd5b5035919050565b634e487b7160e01b600052604160045260246000fd5b604051601f8201601f191681016001600160401b0381118282101715611f3457611f34611ef6565b604052919050565b60006001600160401b03831115611f5557611f55611ef6565b611f68601f8401601f1916602001611f0c565b9050828152838383011115611f7c57600080fd5b828260208301376000602084830101529392505050565b600060208284031215611fa557600080fd5b81356001600160401b03811115611fbb57600080fd5b8201601f81018413611fcc57600080fd5b6103fc84823560208401611f3c565b600082601f830112611fec57600080fd5b610c2183833560208501611f3c565b600082601f83011261200c57600080fd5b813560206001600160401b038083111561202857612028611ef6565b8260051b612037838201611f0c565b938452858101830193838101908886111561205157600080fd5b84880192505b8583101561208d5782358481111561206f5760008081fd5b61207d8a87838c0101611fdb565b8352509184019190840190612057565b98975050505050505050565b600080600080600080600080610100898b0312156120b657600080fd5b88356001600160401b03808211156120cd57600080fd5b6120d98c838d01611fdb565b995060208b01359150808211156120ef57600080fd5b6120fb8c838d01611fdb565b985060408b0135975060608b013591508082111561211857600080fd5b6121248c838d01611ffb565b965060808b013591508082111561213a57600080fd5b6121468c838d01611fdb565b955060a08b0135945060c08b0135935060e08b013591508082111561216a57600080fd5b506121778b828c01611fdb565b9150509295985092959890939650565b6000815180845260005b818110156121ad57602081850181015186830182015201612191565b818111156121bf576000602083870101525b50601f01601f19169290920160200192915050565b82151581526040602082015260006103fc6040830184612187565b60006020828403121561220157600080fd5b81356001600160a01b0381168114610c2157600080fd5b600081518084526020808501808196508360051b8101915082860160005b8581101561226057828403895261224e848351612187565b98850198935090840190600101612236565b5091979650505050505050565b600081518084526020808501945080840160005b8381101561229d57815187529582019590820190600101612281565b509495945050505050565b600081518084526020808501945080840160005b8381101561229d5781516001600160a01b0316875295820195908201906001016122bc565b600061018082518185526122f782860182612187565b915050602083015184820360208601526123118282612187565b91505060408301516040850152606083015160608501526080830151608085015260a083015184820360a08601526123498282612218565b91505060c083015184820360c08601526123638282612187565b91505060e083015184820360e086015261237d828261226d565b915050610100808401518583038287015261239883826122a8565b9250505061012080840151818601525061014080840151818601525061016080840151858303828701526123cc8382612187565b9695505050505050565b6000602080830181845280855180835260408601915060408160051b870101925083870160005b8281101561242b57603f198886030184526124198583516122e1565b945092850192908501906001016123fd565b5092979650505050505050565b6001600160a01b0391909116815260200190565b602081526000610c2160208301846122e1565b60008060008060008060008060006101208a8c03121561247e57600080fd5b8935985060208a01356001600160401b038082111561249c57600080fd5b6124a88d838e01611fdb565b995060408c01359150808211156124be57600080fd5b6124ca8d838e01611fdb565b985060608c0135975060808c01359150808211156124e757600080fd5b6124f38d838e01611ffb565b965060a08c013591508082111561250957600080fd5b6125158d838e01611fdb565b955060c08c0135945060e08c013593506101008c013591508082111561253a57600080fd5b506125478c828d01611fdb565b9150509295985092959850929598565b600061012080835261256b8184018d612187565b9050828103602084015261257f818c612187565b905089604084015288606084015287608084015282810360a08401526125a58188612187565b90508560c08401528460e08401528281036101008401526125c68185612187565b9c9b505050505050505050505050565b602080825260179082015276111bdb985d1a5bdb88191bd95cc81b9bdd08195e1a5cdd604a1b604082015260600190565b80516001600160501b038116811461261e57600080fd5b919050565b600080600080600060a0868803121561263b57600080fd5b61264486612607565b945060208601519350604086015192506060860151915061266760808701612607565b90509295509295909350565b634e487b7160e01b600052601160045260246000fd5b60008160001904831182151516156126a3576126a3612673565b500290565b6000826126c557634e487b7160e01b600052601260045260246000fd5b500490565b6020808252601a9082015279496e76616c696420737461727420616e6420656e642074696d6560301b604082015260600190565b600060001982141561271257612712612673565b5060010190565b634e487b7160e01b600052603260045260246000fd5b600181811c9082168061274357607f821691505b602082108114156113af57634e487b7160e01b600052602260045260246000fd5b60006020828403121561277657600080fd5b5051919050565b6000821982111561279057612790612673565b500190565b6000828210156127a7576127a7612673565b500390565b60018060a01b03841681528260208201526060604082015260006127d36060830184612187565b95945050505050565b6000602082840312156127ee57600080fd5b81518015158114610c2157600080fdfea2646970667358221220b2764df9e5bb00d447620d743525b2e30330b8b7ab6cdacc34a516562816a33564736f6c63430008090033",
  "linkReferences": {},
  "deployedLinkReferences": {}
}